:020000040800F2
:100000009809002065010008A9260008B723000808
:1000100000000000000000000000000000000000E0
:100020000000000000000000000000008928000817
:100030000000000000000000AB2600088B2800082C
:100040007701000800000000770100087701000830
:1000500077010008770100087701000877010008A0
:1000600000000000A5030008B503000877010008A0
:100070007701000877010008770100080000000000
:10008000FD280008000000000000000077010008C3
:1000900000000000770100087701000877010008E0
:1000A0007701000877010008770100083D33000858
:1000B00077010008000000000000000000000000C0
:1000C00000F002F800F03EF80CA030C80838241800
:1000D0002D18A246671EAB4654465D46AC4201D180
:1000E00000F030F87E460F3E0FCCB6460126334274
:1000F00000D0FB1AA246AB4633431847603E0000CF
:10010000803E0000103A02D378C878C1FAD852076E
:1001100001D330C830C101D504680C6070470000BD
:100120000023002400250026103A01D378C1FBD813
:10013000520700D330C100D50B6070471FB51FBDFB
:1001400010B510BD00F0FAF81146FFF7F7FF03F005
:10015000BBFA00F012F903B4FFF7F2FF03BC00F0A2
:1001600019F900000748804707480047FEE7FEE707
:10017000FEE7FEE7FEE7FEE704480549054A064BB1
:1001800070470000FB280008C10000089803002009
:1001900098090020980500209805002001E004C07F
:1001A000091F0429FBD28B0701D50280801CC907D7
:1001B00000D00270704700290BD0C30702D0027034
:1001C000401C491E022904D3830702D50280801CEB
:1001D000891EE3E70022EEE70022DFE700220309A1
:1001E0008B422CD3030A8B4211D300239C464EE052
:1001F00003460B433CD4002243088B4231D303090E
:100200008B421CD3030A8B4201D394463FE0C309BF
:100210008B4201D3CB01C01A524183098B4201D3D7
:100220008B01C01A524143098B4201D34B01C01AC2
:10023000524103098B4201D30B01C01A5241C3083A
:100240008B4201D3CB00C01A524183088B4201D3A9
:100250008B00C01A524143088B4201D34B00C01A95
:100260005241411A00D201465241104670475DE0AA
:10027000CA0F00D04942031000D34042534000222D
:100280009C4603098B422DD3030A8B4212D3FC22D6
:10029000890112BA030A8B420CD3890192118B4255
:1002A00008D3890192118B4204D389013AD092116B
:1002B00000E08909C3098B4201D3CB01C01A524126
:1002C00083098B4201D38B01C01A524143098B42EF
:1002D00001D34B01C01A524103098B4201D30B01D8
:1002E000C01A5241C3088B4201D3CB00C01A5241FD
:1002F00083088B4201D38B00C01A5241D9D24308E4
:100300008B4201D34B00C01A5241411A00D2014620
:10031000634652415B10104601D34042002B00D58A
:100320004942704763465B1000D3404201B500204C
:10033000C046C04602BD704770477047754600F022
:1003400025F8AE46050069465346C008C0008546FC
:1003500018B020B5FFF710FF60BC00274908B6466B
:100360000026C0C5C0C5C0C5C0C5C0C5C0C5C0C5C4
:10037000C0C5403D49008D46704710B50446C04693
:10038000C0462046FFF7E7FE10BD0000004870475A
:100390003403002001491820ABBEFEE7260002000E
:1003A0007047000010B5024800F0D6F810BD0000FC
:1003B000BC01002010B5024800F0CEF810BD0000CE
:1003C0001802002010B50446006C0949800880001E
:1003D00040186064207814210838FFF7FFFE0449B4
:1003E0008031A164C106C90E01208840E06410BDBF
:1003F000000802400179084B8906890E8A00D2184C
:100400000265054A4432491E42658A07920F01215E
:100410009140816570470000FC080240F0B5846C93
:10042000C56C6560046D002C02D0446D856D6560FF
:100430000B4C6568066C1C273E400127B7403D43C6
:100440006560046863608368102B036803D099605B
:100450000068C260F0BD9A600068C160F0BD000035
:100460000000024072B6FEE7F0B5002808D0014651
:1004700020314A79022A05D00422C2630020087183
:100480000120F0BD026813680E24A3431360426C80
:100490001468FF2301339C431460026814686408E5
:1004A000640014600C4A5568066C1C242640012424
:1004B0002746B7403D435560826CC56C5560026D60
:1004C000002A05D015689D431560826D406D42601D
:1004D0004C7100200871F0BD00000240F8B5002406
:1004E000024620325179022903D00421C16301243C
:1004F0002DE001680B680E25AB430B6001680B68AB
:100500005B085B000B60416C0B68FF250135AB435A
:100510000B6010494D68066C1C231E4001231F46CA
:10052000B7403D434D60816CC56C4D60016D002945
:1005300006D00E681D02AE430E60416D856D4D60A4
:10054000537100211171816B002900D0884720462A
:10055000F8BD000000000240F0B42C490C680268AD
:100560001368056C1C273D400426AE40264211D07E
:100570005E070FD513689B0603D4146804239C43BD
:1005800014604B68046C04223C40A24013434B604F
:10059000016B1CE00227AF40064627402036002FA3
:1005A00019D09F0717D513689B0605D413680A2432
:1005B000A3431360012272714B68046C1C22144027
:1005C0000222A24013434B6000213171C16A00290D
:1005D0001AD0F0BC08470827AF40274214D01B07A9
:1005E00012D513680E24A34313604B68046C1C22BD
:1005F000144001221546A5402B434B60C263727123
:1006000000213171416BE2E7F0BC7047000002400D
:1006100070B504003FD02548256814212818FFF73D
:10062000DDFD800020640220264620367071286897
:100630001F4908402860E168A06862690843216991
:1006400011430843A1690843E1690843216A08434B
:1006500021680A68104308602046FFF7B3FE0121B5
:10066000A06889030025884200D165602079616C0B
:100670008006800E0860A06CE16C41606068401EDE
:1006800003280AD82046FFF7B5FE206D0560606D8F
:10069000A16D416004E0012070BD25656565A5651B
:1006A000E563012070713571002070BDF8FFFDBF5A
:1006B0000F80FFFFF8B504468C46203001790025F5
:1006C00001290BD00126067141790027012907D0A5
:1006D0008021E163077101252846F8BD0220F8BD9D
:1006E00002214171E76320680168490849000160FF
:1006F00061462046FFF792FE206B002820680168C3
:1007000001D00E2205E004229143016020680168B7
:100710000A2211430160606C0168CA03074902D5CF
:1007200002680A430260206D002802D002680A4372
:1007300002602068016831430160CDE700010000DC
:1007400070B5044600F0C8F80546601C02D00448A5
:100750000078241800F0C0F8401BA042FAD370BD06
:1007600000000020F0B5002303249AE02A4601256A
:100770009D402A407ED00E79B607B60F012E01D0DB
:10078000022E16D186682746B4465E00B646B740AC
:100790006646BE43B446CF687646B74066463743A2
:1007A00087604668AE430D79ED06ED0F9D403543F9
:1007B00045600D79ED43AD0708D0C5685F0026465A
:1007C000BE40B5438E68BE402E43C6600D79AD076E
:1007D000AD0F022D0ED1DD08AD002D18AC462D6AEF
:1007E0005E07F60E0F27B740BD430F69B7402F4392
:1007F00065462F6205685F002646BE40B5430E7908
:10080000B607B60FBE402E4306604D68AD03AD0F70
:1008100046D09E08264DB6007519AC462D6E9E0733
:10082000F60E0F27B740BD4305273F07B84201D159
:1008300000270FE01F4FB84201D101270AE01E4FE9
:10084000B84201D1022705E01C4FB84201D103276D
:1008500000E00527B7402F43154D664637662D68E3
:100860004E689543F60200D51543114F3D607D68F3
:10087000954300E014E04E68B60200D515437D6054
:100880000B4D80356E684F689643BF0300D5164305
:100890006E602E684F689643FF0300D516432E60A6
:1008A0005B1C0A681546DA4000D05FE7F0BD000027
:1008B000001802400004005000080050000C0050D6
:1008C0000069084000D001207047002A01D08161F2
:1008D00070478162704700000148806870470000DF
:1008E0000000002002488168027889188160704702
:1008F0000000002010B5084800240168821511434B
:100900000160032000F00AF8002801D0012401E072
:1009100000F028F8204610BD0020024070B50F4EB0
:10092000002431780546002915D07D20C000FFF74E
:1009300055FC01460A480068FFF750FC00F04AFEEB
:10094000002808D1042D06D200222946401E00F0BE
:100950002BF8756000E00124204670BD00000020E7
:100960000C00002008B5094801680122114301600C
:1009700000681040009005484038C26B01040A43EB
:10098000C263C06B0840009008BD000040100240E8
:10099000002805DBC106C90E012088400149086016
:1009A0007047000000E100E010B502F0CFFC10BD80
:1009B00010B50F4C2168032252029143014321607C
:1009C000C11FFF39FA390ED10A4806210068484391
:1009D0000949FFF703FC401C02E0002805D0401E37
:1009E00061694905F9D4002010BD032010BD000045
:1009F000007000400C00002040420F00F8B5044693
:100A0000006800264D4D800358D54C4800274038DB
:100A1000C06BC00009D449484038C26B01040A4386
:100A2000C263C06B084001270090454801688215E9
:100A300011430160FFF750FF009005E0FFF74CFF06
:100A40000099401A022825D83D480068C005F5D510
:100A5000E8690321090208400FD0616981420CD086
:100A6000E86903210902EA698843012109040A436C
:100A7000EA61EA698A43EA61E861C0070FD0FFF7DB
:100A80002BFF009008E0FFF727FF0099411A2D483F
:100A9000814201D9032609E0E8698007F3D5E869B6
:100AA00003210902884361690843E861002F05D0EA
:100AB00022484038C26B01048A43C2632078C007D1
:100AC00005D0686961688008800008436861207803
:100AD000800606D56869032109038843A168084395
:100AE00068612088400411D5686921698000800808
:100AF00008436861012120698907884206D10F48AF
:100B00004038C168012212041143C16020880005E9
:100B100012D56869032189038843E1680843686145
:100B20000121E0688903884206D104484038C16841
:100B3000012212041143C1603046F8BD401002404A
:100B40000070004088130000F8B50F46060043D03F
:100B50004D4D28684007400FB84213D22868C0089E
:100B6000C00038432860FFF7B7FE044605E0FFF7F2
:100B7000B3FE011B4548814261D828684007400FF9
:100B8000B842F4D13068424C81070DD5400704D5F6
:100B9000A068072109030843A060A0680F2109028B
:100BA0008843B1680843A0603078C00732D07068CD
:100BB00001280AD002280BD000280FD03449403138
:100BC00003280ED0C969890704E02168890301E080
:100BD00021688901002906DB0120F8BD216849054B
:100BE000F8E7096AEFE7A168C908C9000143A160F5
:100BF000FFF772FE009006E0FFF76EFE0099411AC3
:100C0000224881421BD8A068382108407168C90079
:100C10008842F1D128684007400FB84217D91A48D6
:100C20000168C908C90039430160FFF755FE054650
:100C300007E0FFF751FE411B1448814201D9032010
:100C4000F8BD114800684007400FB842F1D1307834
:100C5000400706D5A068072109038843F1680843C7
:100C6000A06000F031F8A1683C2289091140094ACE
:100C7000515CC906C90EC8400749086007480068AA
:100C8000FFF74CFEF8BD0000002002408813000072
:100C900000100240FC3E00080C0000200400002070
:100CA0000648074900688968064A4904490F8900CF
:100CB000515CC906C90EC840704700000C000020F6
:100CC000001002403C3F000810B5204CA068204AAC
:100CD0008006400F16D0A0688006410F50100129F1
:100CE0000FD0A1688906490F022912D0A06880069A
:100CF000400F042823D0A0688006400F032821D08D
:100D0000002010BD206801218004400F8140104662
:100D100012E0E1688B07E1689B0F4906490F491C07
:100D2000032B00D01046FFF759FAE1684904490E39
:100D30004843E168490F491CFFF750FA10BD0120F4
:100D4000C00310BD7D20000210BD00000010024055
:100D50000024F400F8B504007ED020783827C007BE
:100D6000E94D002846D0A868E96838408907890F0E
:100D7000102802D008280BD001E0032908D0012058
:100D80006268000482420AD129680143296015E0A3
:100D9000286880032ED560680028DDD02AE005236E
:100DA00001211B0489049A422A6802D10A432A605D
:100DB000EAE782432A602868884328606068002840
:100DC0000CD0FFF789FD064604E0FFF785FD801B88
:100DD000642873D828688003F7D50BE0FFF77CFD03
:100DE000064604E0FFF778FD801B6428F1D82868E8
:100DF0008003F7D42078800769D5A868E96838406F
:100E00008A070721920FC902102802D0002813D0A8
:100E100001E0022A10D0E068002846D02868884304
:100E20002169084328602868FF21013108432860B0
:100E3000FFF752FD06462CE02A68520502D5E2680B
:100E4000002A89D06A687F231B029A4363691B02C8
:100E50001A436A60002800E08DE00ED128688843BC
:100E6000216908432860286801218004400F8140DF
:100E7000A648FFF7B3F9A6490860A6480068FFF73F
:100E80004DFD002877D122E0FFF726FD801B0228C8
:100E90009FD828684005F7D568687F2109028843F4
:100EA000616909020843686011E02968FF20013088
:100EB00081432960FFF710FD064605E098E0FFF743
:100EC0000BFD801B022884D828684005F7D42078C1
:100ED000914E00072ED5A8688006400F03280AD03F
:100EE000A0690028306A16D0012108433062FFF75C
:100EF000F3FC07460BE0306A80071BD5A069002889
:100F00009FD017E0FFF7E8FCC01B022870D8306ABA
:100F10008007F7D50EE0400840003062FFF7DCFCA8
:100F2000074604E0FFF7D8FCC01B022860D8306AEF
:100F30008007F7D4207840076CD5A8680027800682
:100F4000400F042818D0E86BC00008D4E96B0120DA
:100F500000070143E963E96B0140012700916F48F5
:100F60000168C90519D40168821511430160FFF7B2
:100F7000B3FC00900DE083E0F06980074AD5A068DB
:100F800000287DD046E0FFF7A7FC0099401A022810
:100F90002ED862480068C005F5D5A168012910D097
:100FA00004200529F16911D049084900F161F1696E
:100FB0008143F161A068002816D0FFF78DFC0090F6
:100FC0000EE0F06901210843F061F3E70143F161AC
:100FD000F7E7FFF781FC0099411A5148814265D833
:100FE000F0698007F5D50EE0FFF776FC009007E08A
:100FF0005CE0FFF771FC0099411A4948814255D8DD
:10100000F0698007F5D4002F04D0E96B01200007B8
:101010008143E963E069002873D0A9688906490F14
:1010200002294DD0012636060228286805D0B04393
:101030002860FFF751FC04463AE0B0432860FFF710
:101040004BFC074604E0FFF747FCC01B02282DD8E5
:1010500028688001F7D4616A206AA26A0843E16ABD
:10106000120211430843216B0843E9682D4A1140DD
:101070000843E860286830432860E868012100E000
:101080003DE009070843E860FFF726FC044604E05A
:10109000FFF722FC001B022808D828688001F7D53A
:1010A0002FE0FFF719FC001B022801D90320F8BD2F
:1010B00028688001F5D4E8681B490840E86020E012
:1010C0000128F4D0E868226A8107890F914216D17D
:1010D0007021626A0140914211D17F21A26A090206
:1010E0000140120291420AD11F214904E26A0140E3
:1010F000914204D1400F216B4007884201D001206A
:10110000F8BD0020F8BD0000001002400024F400EB
:101110000C0000200400002040100240007000403D
:10112000881300008C80C11FFCFFFEEFF8B504009F
:101130000CD0606A002500280AD02561656126462A
:101140004036A562707F002808D00BE00120F8BD72
:101150006168C81FFD38F2D0E561F0E735772046B9
:1011600000F05CF8022272772068016840239943FE
:1011700001600723E1681B02994201D9002001E0C8
:10118000012000030F273F02B94202D0994200D04C
:10119000A562FF236168053319402127A368BF02B8
:1011A0003B40194323691340227D1943D207D20FD4
:1011B00011430123A2695B021A401143E2693823FB
:1011C0001A401143226A80231A401143A26A9B01EC
:1011D0001A40114322681160A1690422090C1140D0
:1011E000626A10231A401143626B08231A401143AC
:1011F0000F23E2681B021A40114301221203104020
:101200000143206841602068C16952109143C16167
:101210002566012070770020F8BD000010B586B06B
:10122000044614216846FEF7D7FF12492068884219
:101230001DD11148026881140A4302600068084009
:1012400005900D484038416B012211434163406BCA
:101250006946104005904620009002200190002031
:1012600002900390049005200007FFF77BFA06B078
:1012700010BD00000030014040100240FFB505469F
:1012800004464035287F002781B01646012809D042
:1012900001202877FFF720FB0090687F012804D009
:1012A000022797E0022005B0F0BD0298002874D014
:1012B000002E72D003206877002020660299A16377
:1012C000A687E6872064A880E8802065E064012284
:1012D000A068D2034021904208D1206802688A4366
:1012E0000260206802680B021A43026020680268EC
:1012F000520602D402680A4302600721E06809022C
:101300008842606828D9002801D0012E1ED1A06B28
:1013100021680088C86006E020688168890709D5CF
:10132000A16B0988C160A06B801CA063E08F401E88
:10133000E0870BE0FFF7D0FA0099411A0498814248
:1013400002D3401C02D005E0002803D0E08F002823
:10135000E2D128E003273BE0002801D0012E1FD175
:10136000A06B21680078087306E02068816889070F
:1013700009D5A16B09780173A06B401CA063E08FB5
:10138000401EE0870CE0FFF7A7FA0099411A049885
:10139000814203D3401C03D0DCE717E00028D9D0FA
:1013A000E08F0028E1D12046009A049901F07EF9EF
:1013B000002801D020202066A068002803D12068E2
:1013C000C16880680090206E002801D0012701E0EC
:1013D0000120687700202877384664E7FFB5044687
:1013E00083B00120254640350090287F00271E4607
:1013F00001280FD001202877FFF76EFA0190687F4F
:10140000616801280DD0CA1FFD3A08D1A1680029E2
:1014100005D102E0022007B0F0BD042801D0022768
:10142000D4E0049800286FD005980028FBD0002E47
:10143000F9D0687F042801D0052068770020206655
:1014400005992164EE80AE800499A163E687A687A2
:10145000E064206507210120E268090200038A4256
:101460002268536801D9834300E003435360206836
:101470000268520603D4026840231A430260E068FF
:101480008842606848D9002801D0012E3DD1A06B68
:1014900001882068C160A06B801CA063E08F401EA3
:1014A000E08732E020688168890710D5E18F002944
:1014B0000DD0009901290AD1A16B0988C160A06BE8
:1014C000801CA063E08F401EE08700200090206811
:1014D0008168C9070DD0E98800290AD0C068216C4D
:1014E0000880206C801C2064E888401EE880012071
:1014F0000090FFF7F1F90199401A0C99884204D342
:10150000481C02D003275FE05CE0E08F0028C9D1CF
:10151000E8880028C6D148E0002801D0012E3ED13D
:10152000A06B216800780873A06B401CA063E08F5B
:10153000401EE08733E020688168890710D5E18F7D
:1015400000290DD0009901290AD1A16B09780173F6
:10155000A06B401CA063E08F401EE087002000903D
:1015600020688168C9070DD0E98800290AD0007B6E
:10157000216C0870206C401C2064E888401EE880C4
:1015800001200090FFF7A8F901460198091A0C986C
:10159000814202D3401C02D0B4E70028B2D0E08FD1
:1015A0000028C8D1E8880028C5D12046019A0C99A6
:1015B00001F07CF8002802D0012720202066206E50
:1015C000002801D0012701E001206877002028775A
:1015D000384620E7094910B5401E884201D901204C
:1015E00010BD074C60610321081F01F0AFFE002011
:1015F000A06107202061002010BD0000FFFFFF0058
:1016000000E000E0704770477047000030B50346C7
:1016100020331A7F012A49D001221A770325CA688C
:101620002D02AA438D6800682A430125AD02AA4312
:101630004D6800242A430125ED02AA430D682A4380
:1016400001252D03AA430D692A4301256D03AA43F1
:101650004D692A430125AD03AA430D6B2A430F258B
:101660002D04AA430D8B2D042A4301252D07AA43DF
:10167000CD692A430E4DA84214D10F252D05AA434A
:101680000D8D2D052A4301252D06AA430D6A2A43F7
:1016900001256D06AA434D6AC96A2A4301256D07D3
:1016A000AA430A4342641C77002030BD022030BDAB
:1016B000002C0140F0B5034620331A7F012A24D0C4
:1016C00001221A7702225A7704686268A568104FCF
:1016D000BC4205D116460F22120596434A68324392
:1016E0007026B2430E68164366600068B84202D0A6
:1016F000084A904204D18022896895432943816039
:101700000120587700201877F0BD0220F0BD0000BE
:10171000002C01400004004070B5040005D02546AF
:101720002035687F002802D006E0012070BD00202F
:101730002877204600F016F802206877211D2068DF
:1017400001F0E4F8012240342272AA77EA7722708D
:101750006270A270E27022716271A271E2716A77A6
:10176000002070BD08B500681049884208D11048B3
:101770000268C1140A43026000680840009008BD76
:101780000C498842FBD10A484038C26B02210A4307
:10179000C263C06B00220840009011461020FFF782
:1017A00003F91020FFF7F4F808BD0000002C0140F9
:1017B0004010024000040040014620314A7F012AC7
:1017C00001D00120704702224A770068094A0121AE
:1017D000904202D0084A904207D18268074B1A40D3
:1017E000062A05D0DB1F9A4202D002680A43026033
:1017F00000207047002C0140000400400700010059
:10180000014620314A7F012A01D00120704702227F
:101810004A770168CB6801221343CB60006809490D
:10182000884202D00849884207D18168074B194095
:10183000062905D0DB1F994202D0016811430160DF
:1018400000207047002C0140000400400700010008
:10185000F8B5054604462035287F0026012817D014
:1018600001272F7702206877226890682F4B184055
:10187000FF231B02984390600868502838D00EDC84
:1018800020284FD006DC00284CD010281ED149E07B
:101890000220F8BD302845D0402817D13AE0602812
:1018A0002ED0702818D001221203801A0FD0904237
:1018B0000CD1CB684A688968206801F078F8206804
:1018C0008168012292031143816000E001266F7755
:1018D000002028773046F8BDCB684A6889682068C0
:1018E00001F065F821688868772210438860EEE788
:1018F000CA684968206801F0BDF95021206806E0F7
:10190000CA684968206801F0C6F96021206801F0C2
:1019100059F8DCE7CA684968206801F0ABF9402152
:101920002068F4E7226801461046F0E788FFCEFF02
:1019300070470000F8B504460068C66805690027CE
:10194000A907002913DAB10711D5F91E0161012099
:101950002077206880698007204602D0FFF7E8FFE3
:1019600004E000F0B3F8204600F06CF92777680730
:1019700016D5700714D504202168C04308610220E1
:101980002077206880698005800F204602D0FFF70D
:10199000CFFF04E000F09AF8204600F053F92777D3
:1019A000280715D5300713D508202168C0430861E2
:1019B000042020772068C0698007204602D0FFF706
:1019C000B7FF04E000F082F8204600F03BF92777EB
:1019D000E80616D5F00614D510202168C04308612A
:1019E000082020772068C0698005800F204602D03B
:1019F000FFF79EFF04E000F069F8204600F022F9AE
:101A00002777E80708D0F00706D001202168C043F7
:101A10000861204600F078F9280601D4A80407D50B
:101A2000300605D52168134808612046FFF7EBFD15
:101A3000E80507D5300605D521680F48086120461E
:101A4000FFF7E0FD680608D5700606D5402021683E
:101A5000C0430861204600F073F9A80608D5B00617
:101A600006D520202168C04308612046FFF7CCFD41
:101A7000F8BD00007FDFFFFFFFFEFFFF10B586B05F
:101A8000044614216846FEF7A7FB0E4920688842E9
:101A900015D10D48416B012211434163406B022176
:101AA0001040059009200002009000200290039051
:101AB00001910491052069460007FEF753FE06B028
:101AC00010BD0000002C0140001002407047F8B526
:101AD00004460020264620360090307F0D4601281F
:101AE0000CD00120082730770C2A48D008DC002AC7
:101AF00010D0042A1ED0082A06D130E00220F8BDFA
:101B0000102A52D0142A60D0012000900020307793
:101B10000098F8BD206800F05FFF206881693943B4
:101B20008161206881690422914381612068816913
:101B30002A6911E0206800F08DFF20688169012288
:101B4000D202114381612068816952109143816101
:101B5000206881692A69120211438161D6E72068F1
:101B600000F0B6FF2068C1693943C1612068C169CE
:101B700004229143C1612068C1692A6912E020688A
:101B800000F0E4FF2068C1690122D2021143C16163
:101B90002068C269012189028A43C2612068C16943
:101BA0002A6912021143C161B0E7206801F002F80E
:101BB0002068416D394341652068426D04218A43A4
:101BC00042652068416D2A6912E0206801F020F822
:101BD0002068416D0122D202114341652068426DA7
:101BE000012189028A4342652068416D2A691202F7
:101BF000114341658AE770B5040005D025462035BC
:101C0000687F002802D006E0012070BD0020287700
:101C1000204600F016F802206877211D206800F0A9
:101C200075FE012240342272AA77EA772270627030
:101C3000A270E27022716271A271E2716A77002073
:101C400070BD70477047000030B505460223203054
:101C500000290ED0042911D02C464034082912D076
:101C60000C2915D0102918D0E278012A1AD00120A9
:101C700030BD827F012AFAD1837714E0C27F012A26
:101C8000F5D1C3770FE02278012AF0D123700AE062
:101C90006278012AEBD1637005E0A278012AE6D1CF
:101CA000A37000E0E3700122286800F073FE114A7F
:101CB0002868904205D01049884202D00F498842D6
:101CC00004D1416C0123DB031943416428680121DD
:101CD000904202D00A4A904207D18268094B1A40CA
:101CE000062A05D0DB1F9A4202D002680A4302602E
:101CF000002030BD002C014000440140004801405C
:101D000000040040070001000B4910B5884211D1C2
:101D10000A480121817141697D22491C4161018A82
:101D2000D200491C89B20182914201D30021018273
:101D300001F04CFB10BD0000DC0000201000002072
:101D4000704710B5014680310A79012A15D0012269
:101D50000A7124228A6002681368146864086400A7
:101D60001460012252079343002242660068036018
:101D7000202088600A71104610BD022010BD7047F7
:101D8000704770B5044605468034207901281AD082
:101D9000012020712420A06028680668026852088B
:101DA000520002602868826807235B069A430A4350
:101DB0008260284600F082FF286806602020A0602C
:101DC0000020207170BD022070BD70B5044605462C
:101DD00080342079012819D0012020712420A060AE
:101DE0002868066802685208520002602868826803
:101DF000D200D2080A438260284600F05FFF2868BC
:101E000006602020A0600020207170BD022070BDFF
:101E10007047704770470000F8B503680446D969F9
:101E200018689A68B44D0E462E4025468035002E1F
:101E300075D0B24EB24F1640074037436ED0CF0731
:101E400006D0C70504D501271F622B693B432B61D0
:101E50008B0708D5D30706D0276802233B622B697E
:101E600004273B432B614B0708D5D30706D02768CF
:101E700004233B622B6902273B432B610B0709D5E7
:101E800020230340334305D02668082333622E699C
:101E90001E432E610B0509D5430107D50123266892
:101EA000DB0233622B69202633432B612B69002B25
:101EB00042D089060AD520210840C9050A401043AE
:101EC00004D0616F002901D0204688472869216825
:101ED0008968490602D42821084232D0204601F000
:101EE0008BF821688868400627D5EFF3108001221F
:101EF00082F310888B68402293438B6080F31088B4
:101F00002868002819D07F4981632868FEF7E6FA1F
:101F1000002811D02868816B0DE000E017E08E06E4
:101F200015D5012720263F07064017403E430ED017
:101F3000616FB5E020468847F8BD2046FFF76AFF8D
:101F4000F8BD2046FFF766FF00202861F8BDE66E69
:101F5000012E7DD1CE067BD5C60679D510221A6218
:101F600023689868264640064036002849DA2968E2
:101F7000086840680004000CE8D0B78B8742E5D9B8
:101F8000F08308680068800634D4EFF310800121E4
:101F900081F3108819681701B943196080F310881C
:101FA000EFF31080012181F3108821688B685B08B2
:101FB0005B008B6080F31088EFF31080012181F3C8
:101FC000108821688B684027BB438B6080F31088A2
:101FD0002020E8600020E066EFF31080012181F30B
:101FE000108821680B6893430B6080F31088286881
:101FF000FEF73AFA02202067B08BF18B401A81B2CB
:1020000035E0B08BF18B401A81B2F08B00289DD067
:1020100000299BD0EFF31080012686F310881E68FC
:10202000FF272137BE431E6080F31088EFF3108036
:10203000012383F3108823689E68304FFF433E409E
:102040009E6080F310882020E8600020E06600E0B9
:1020500011E06067EFF31080012383F31088236899
:102060001D6895431D6080F310880220206720467C
:10207000FFF785FEF8BDCE0208D5560206D5012031
:10208000000518622046FFF7C4FEF8BD0E060BD50A
:1020900001278026FF0506403A40164304D0A16F71
:1020A000002900D046E7F8BD4A0614D5420612D5ED
:1020B0002046EFF31081012282F310881A68402431
:1020C000A2431A6081F310882021A9600021816752
:1020D00000F064F9F8BD0A0205D5420003D5204698
:1020E000FFF796FEF8BDC901FCD50028FADA2046B4
:1020F000FFF746FEF8BD00000F08000001000010C9
:1021000020010004852E000870B5040005D0254686
:102110008035A868002802D006E0012070BD0020AC
:102120002871204600F026F82420A8602068016865
:10213000490849000160A06A002802D0204600F04A
:10214000DFFD204600F0A8FF0128E7D020684168A5
:102150000922D20291434160206881682A2291437A
:10216000816020680168012211430160204600F06F
:102170002DFE70BDF0B58DB0064614216846FEF701
:102180002BF8182105A8FEF727F833493068884254
:102190005FD1012000240590069405A8FEF72EFCCF
:1021A000002801D0FEF75EF92C480268012189035E
:1021B0000A430260006808400B9028484038426B90
:1021C00002210A434263406B6A4608400B90C020DC
:1021D00013C20394694622480494FEF7C3FA224DC1
:1021E00020482860AC60EC606C618027AC612F6196
:1021F0003220EC6168600320000328622846FEF765
:1022000007FA002801D0FEF72DF980208551AE6233
:10221000154D14485C351430286033206860294619
:102220001020083191C16C61AC610002EC61286240
:102230002846FEF7EDF9002801D0FEF713F9F567FF
:10224000002211461B20AE62FEF7AEFB1B20FEF7FC
:102250009FFB0DB0F0BD000000380140401002406F
:102260000004005008000240BC01002070B58C231F
:102270001B58202B01D0022070BD00290BD0002A52
:1022800009D0012483682403A34206D10369002BEB
:1022900003D1CB0701D0012070BD0023C3660468C1
:1022A00063681B020BD5EFF31083012585F31088BB
:1022B00025680126B6063543256083F3108800F0B3
:1022C0009FFF70BD074910B588420AD1064C20789F
:1022D00001F048F900202070012221460148FFF753
:1022E000C5FF10BD28010020280000207047000015
:1022F00070B5054604468035A868202801D0022024
:1023000070BD00290BD0002A09D00123A0681B034F
:10231000984206D12069002803D1C80701D00120C6
:1023200070BD2046403021658282C2820020286133
:102330002121A960E16F002918D0154BCB62E36F12
:1023400014491963E36F14495963E16F13468863B5
:102350002668216D32462832E06FFEF7ABF900287F
:1023600004D0102028612020A860D8E721684020F0
:102370000862EFF31080012181F3108821688A68D8
:1023800080231A438A6080F31088002070BD00000B
:10239000A32F0008EF2F0008992E00080349884258
:1023A00002D10349002088707047000028010020F6
:1023B000280000207047FEE708B50C48816B012219
:1023C00011438163806B1040002200901146092068
:1023D000FEF7EAFA0920FEF7DBFA002211460A208E
:1023E000FEF7E2FA0A20FEF7D3FA08BD0010024019
:1023F000F0B587B014216846FDF7EEFE2048426B29
:1024000002210A434263426B0A400592426B042157
:102410000A434263426B0A400592416B0124214307
:102420004163406B03252040164EAD0305902246C4
:1024300029463046FEF749FA05273F070122392190
:102440003846FEF742FA0095002501940295694648
:1024500030460395FEF786F93920694631C10320DD
:10246000039069463846FEF77DF92120C0010090AF
:102470006946019502943846FEF774F907B0F0BD3D
:10248000001002400008005010B511480F490160CB
:10249000FF210531416000210722816012020161A4
:1024A000C2600122416152028261016210224162D6
:1024B000C26181620722C262016308214163FEF7A3
:1024C00035FE002801D0FDF7CDFF10BD00300140E2
:1024D0002C00002010B59CB0002419941A94179475
:1024E0001894149415941C210DA81694FDF774FEED
:1024F00034216846FDF770FE3448334901603F21BE
:10250000846041607D210461C9004461C160802113
:102510008161FFF701F9002801D0FDF7A3FF012039
:102520000003179017A92948FFF792F9002801D056
:10253000FDF798FF2548FFF75EFB002801D0FDF767
:1025400091FF1494159414A920481694FFF7B2F83B
:10255000002801D0FDF786FF602012940E940D90A4
:102560000F941094119400220DA913941748FFF7AB
:10257000AEFA002801D0FDF775FF0C220DA9134813
:10258000FFF7A5FA002801D0FDF76CFF01200094A9
:10259000400305900194029404940003039406946C
:1025A0000794099008940A940B9469460C94074880
:1025B000FFF72CF8002801D0FDF754FF0348FFF780
:1025C0005DFA1CB010BD0000002C014090000020FE
:1025D00010B588B000240094019417480294039425
:1025E000049405941349069401601F21846041609E
:1025F00012490461C16080218161FFF78DF80028D4
:1026000001D0FDF72FFF01200003009069460A4822
:10261000FFF71EF9002801D0FDF724FF049404A958
:1026200005480694FFF746F8002801D0FDF71AFF89
:1026300008B010BD00040040DC000020E7030000EB
:1026400010B51848164901607D21C902416000217A
:102650008160C16001618161C16101620C224162DE
:1026600042618162FFF750FD002801D0FDF7FAFEBC
:1026700000210C48FFF7A9FB002801D0FDF7F2FE6E
:1026800000210848FFF77DFB002801D0FDF7EAFE96
:102690000448FFF756FB002801D0FDF7E3FE10BD0C
:1026A0000038014028010020FEE77047F8B50F46CA
:1026B0000B4615460092032104460022C90200F091
:1026C0001BF82026002812D13B46002280212046FC
:1026D000009500F07DF8002809D103213B46002237
:1026E00049022046009500F007F8002803D0206E2C
:1026F000304320660320F8BDFFB585B00E46044682
:10270000002069460E9D17460871FEF7E5F8411B4B
:102710000898451AFEF7E0F80390206823210C3052
:1027200002902A4800684843000D684346E00320B1
:102730004002864206D1002F04D1029801786846F3
:10274000017100790898401C39D0FEF7C5F803994B
:10275000401AA84205D2002D03D0009800282BD0A3
:102760002BE020684168E022914341606068C11F0E
:10277000FD390CD10121A068C903884202D049115A
:10278000884204D120680168402291430160012001
:10279000A16A4003814207D121680A6882430A6026
:1027A00021680A6802430A600120403460770020F3
:1027B0002077032009B0F0BD0025401E009020685E
:1027C00080683040B842B2D10020F3E70C0000200E
:1027D000FFB581B01E4604460A9DFEF77DF8401BFA
:1027E000351AFEF779F80746264800684001000DC3
:1027F000684339E0701C38D0FEF76EF8C01BA84261
:1028000005D2002D03D0009800282BD02BE02068A3
:102810004168E022914341606068C11FFD390CD1DD
:102820000121A068C903884202D04911884204D11D
:10283000206801684022914301600120A16A4003A1
:10284000814207D121680A6882430A6021680A68C8
:1028500002430A6001204034607700202077032083
:1028600005B0F0BD0025401E0090206881680298E8
:10287000884305D0002103988142BBD10020EFE7B7
:102880000121F8E70C000020704710B5FEF72AF888
:1028900010BD30B591B034216846FDF79DFC002590
:1028A00001200D950E950F9540021095FEF780F8CA
:1028B0000224E001039000944020059008200A9033
:1028C00080030B900794000304950C9009950894DD
:1028D0006846FEF73FFA002801D072B6FEE70720EF
:1028E0000DA931C102210DA81095FEF72DF9002880
:1028F00001D072B6FEE711B030BD704710B5024886
:10290000FFF718F810BD0000DC00002070B5026869
:102910001B4B1C4E984201D0B04203D17024A243FD
:102920004C682243184C194D984208D0B04206D04A
:10293000174EB04203D0A04201D0A84204D10326D2
:102940003602B243CE6832438026B2434E693243E8
:1029500002608A68C2620A688262984203D0A0421A
:1029600001D0A84201D109690163012141610169D6
:10297000C90703D0016949084900016170BD000021
:10298000002C014000040040004401400048014088
:102990000020004010B5CB06DB0E0121046A9940EF
:1029A0008C430462016A9A401143016210BD30B544
:1029B0008468FF252D021B021343AC430B432343C2
:1029C000836030BD8268034B1A400A4307210A43E3
:1029D000826070478FFFCFFFF0B5056A026A520828
:1029E0005200026243688269164C184E22409208D7
:1029F0000C6892001443022295438A682A43124DC0
:102A0000A84204D0B04202D0114FB84206D10827E4
:102A1000BA43CF681743042297433A46A84204D0EA
:102A2000B04202D00A4DA84206D103252D02AB4385
:102A30004D691D438B692B43436084614968416341
:102A40000262F0BD8FFFFEFF002C014000440140F8
:102A50000048014070B5046A026A10239A4302627A
:102A600043688269164D2A4003252D02AA430D684A
:102A70002D021543202294438A6812012243114CEF
:102A8000A04207D18024A243CC68402624012243DF
:102A9000B24305E00C4CA04202D00C4CA04208D13D
:102AA0000324A402A3434C69A4001C438B699B002C
:102AB00023434360856149688163026270BD000001
:102AC000FF8FFFFE002C0140004401400048014000
:102AD00070B5046A026AFF2301339A4302624368B5
:102AE000C269164D2A4092080D68920015430122D2
:102AF000520294438A6812022243114CA04208D128
:102B00001446CA68C614B443120222430415A243F1
:102B100005E00C4CA04202D00B4CA04208D103248B
:102B20002403A3434C6924011C438B691B012343E9
:102B30004360C5614968C163026270BD8FFFFEFFDB
:102B4000002C0140004401400048014030B5046AB7
:102B5000026A01231B039A4302624368C269114D52
:102B60002A4003252D02AA430D682D021543012298
:102B7000520394438A68120322430B4CA04205D0AF
:102B80000A4CA04202D00A4CA04205D10124A40361
:102B9000A3434C69A40123434360C56149680164B0
:102BA000026230BDFF8FFFFE002C01400044014057
:102BB0000048014070B5036A026A01263604B24338
:102BC00002624268456D0E4C25400C682C4375002E
:102BD000AB430D892D041D430A4B984205D00A4B87
:102BE000984202D0094B984203D14B69B2431B0271
:102BF0001A434260446549688165056270BD000002
:102C00008FFFFEFF002C01400044014000480140BE
:102C100070B5046A026A01231B059A430262426886
:102C2000436D104D2B400D682D021D4301235B05A4
:102C30009C430B891E050C4B2643984205D00B4B39
:102C4000984202D00A4B984206D101241346A404AC
:102C50004A69A34392021A43426045654968C165C7
:102C6000066270BDFF8FFFFE002C01400044014052
:102C70000048014030B5036A046A640864000462D5
:102C80008469F025AC43120122430A24A3430B4379
:102C90008261036230BD30B5046A036A1025AB431C
:102CA000036283690F252D031203AB431A43A0234C
:102CB0009C43090121438261016230BDF8B504469D
:102CC000416E4034002915D0006881688068090190
:102CD0004D0F0A4E400F3746315C083F385CC0004C
:102CE000FDF77CFA6085785D715DC000FDF776FACE
:102CF0002085F8BD01206085FAE70000F43E000859
:102D000010B5018D090707D501684A680123DB0367
:102D10009A43836B1A434A60018DC90707D0016843
:102D20004A6801235B049A43C36A1A434A60018DCF
:102D3000890707D501684A6801231B049A43036B7E
:102D40001A434A60018D490707D501684A68012383
:102D50009B049A43436B1A434A60018DC90607D509
:102D60000268916801231B039943C36B1943916067
:102D7000018D890607D501688A6801235B039A43A0
:102D8000036C1A438A60018D490612D503685A689C
:102D900001210905446C8A4322435A60426C8A42ED
:102DA00007D10268516803235B059943836C19437B
:102DB0005160018D090607D501684A680123DB04CB
:102DC000C06C9A4302434A6010BD0000FEB5054640
:102DD0000026803504462E61FDF77EFD01902068B7
:102DE000006820270007002817DA254800900022F5
:102DF00039042046019B00F059FA00280DD0EFF36A
:102E00001080012181F3108821680A6880239A4389
:102E10000A6080F31088AF6028E0206800684007EF
:102E200027D5174800900121002289052046019BE3
:102E300000F03CFA00281CD0EFF31080012181F350
:102E4000108821680A68FF2321339A430A6080F3BF
:102E50001088EFF31080012181F3108821688A68BF
:102E6000520852008A6080F31088EF602E710320B0
:102E7000FEBDAF60EF60E66626672E710020FEBDE6
:102E8000FFFFFF0110B5806A002201464031CA836E
:102E9000CA82FEF7BFFF10BDF8B5846A20468030B5
:102EA00081680546C66820688068002700060028FB
:102EB00006DA212904D156200753204600F0CEF827
:102EC00020688068400606D5222E04D15E20075374
:102ED000204600F091F82869102108432861204617
:102EE000FEF798FFF8BD70B501460968806A096869
:102EF00000228906002938DB5E210A52EFF3108197
:102F0000012383F3108803681C68FF250135AC4357
:102F10001C6081F31088EFF31081012383F3108884
:102F200003689C68640864009C6081F31088EFF378
:102F30001081012383F3108803689C684025AC430B
:102F40009C6081F3108820238C210B50C16E0129D5
:102F50000BD1EFF31081012383F3108803681C6801
:102F60001025AC431C6081F310880267C16E0129F3
:102F700002D0FFF7A7F970BD5C21095AFEF7FFFEEA
:102F800070BD10B5806A01210167C16E012902D0B0
:102F9000FFF7ACF910BD5C21095A4908FEF7EFFEB6
:102FA00010BD10B501460968806A096889061BD4FE
:102FB000002256210A52EFF31081012282F3108879
:102FC000026893688024A343936081F31088EFF331
:102FD0001081012282F310880068026840231A439E
:102FE000026081F3108810BDFFF7D8F910BD10B54D
:102FF000806AFFF7DFF910BD10B5EFF310810122F1
:1030000082F3108802681368FF242134A3431360FD
:1030100081F31088EFF31081012282F31088026897
:1030200093680D4C2340936081F31088C16E012991
:103030000BD1EFF31081012282F31088026813682C
:103040001024A343136081F3108820228C210A509E
:103050000021C166416710BDFEFFFFEF10B5EFF321
:103060001081012282F3108802681368C024A343F0
:10307000136081F31088EFF31081012282F310882E
:10308000026893680124E405A343936081F31088E8
:1030900020218030816010BDF8B504468068216928
:1030A000E2690843616900251143226808431168F9
:1030B0004B4B194001431160206841680322120301
:1030C0009143E26811434160A169206A0843216885
:1030D0008A68444B1A4002438A602068C16A626A67
:1030E000090909011143C1623F492068884211D191
:1030F0003E4840698007800F0FD0012806D0022883
:1031000002D003280BD103E0022109E0042107E0EB
:10311000082105E03649884201D1002100E0102154
:103120000120E369C003334A334E344F834227D131
:10313000002906D0022907D0042907D008293FD149
:1031400008E0FDF7ADFD03E0104603E0FDF7BCFD30
:1031500000283AD0616A4900715AFDF73FF861686A
:1031600040004A088018FDF739F801461039B94285
:1031700026D82249491C01400007400F084322E09D
:10318000002906D0022907D0042907D0082917D121
:1031900008E0FDF785FD03E0104603E0FDF794FD30
:1031A000002812D0616A4900715AFDF717F861686A
:1031B0004A088018FDF712F801461039B94201D9C2
:1031C000012502E080B22168C8602046012140301C
:1031D0004185018500206067A0672846F8BD000092
:1031E000F369FFCFFFF4FF110038014040100240A7
:1031F000004400400024F400D43E0008EFFF00002B
:1032000070B50446816540308283002025468035B4
:1032100028612221E9602968002919D0204BCB625E
:103220002B68204919632B681F4959632968134685
:103230008863A66D2168324624312868FDF73AFA82
:10324000002805D0102028612020E860012070BDF2
:10325000206900280CD0EFF31080012181F3108841
:1032600021680A68FF2301331A430A6080F310883B
:10327000EFF31080012181F31088226893680B43DB
:10328000936080F31088EFF3108081F31088216839
:103290008A6840231A438A6080F31088002070BD3A
:1032A000E72E0008832F0008992E0008FFB581B093
:1032B00005460E46044680350A9F32E0781C30D021
:1032C000FDF70AFB0499401AB84218D8002F16D00F
:1032D00020680168490724D5802E22D0402E20D0B6
:1032E000C169C94309070CD4082606622046FFF7C6
:1032F00083FE2E6100202871012005B0F0BD03205F
:10330000FBE7C069C04300050BD401202168C0025F
:1033100008622046FFF770FE2020286100202871F7
:10332000EDE72068C1693046884305D00021039845
:103330008142C3D00020E0E70121F8E710B5024840
:10334000FEF76AFD10BD0000280100208307FF2260
:10335000DB0E9A408907090E9940002808DB830894
:1033600009489B001B181868904308431860704771
:103370000007000F0838830804489B001B18D86911
:1033800090430843D861704700E400E000ED00E09E
:103390000020054A01461154401CC0B22028FAD32F
:1033A0000248417070470000F4020020280000200D
:1033B0000549012803D0022803D00420704708786B
:1033C000704748787047000010000020F8B5294C7D
:1033D000FF2520780127F535BF03274E002806D0AA
:1033E000012806D0022808D003281AD125E000229F
:1033F00013E0208AA842FAD91FE0208A002801D0D1
:10340000822804D1002239463046FDF75EFA208A30
:103410001E2812D0A02810D003E039463046FDF710
:1034200054FA60780127FF0300280BD0012806D04A
:10343000022809D003281BD115E00122EDE7208ADC
:10344000A84210D800220FE0208A002801D082284C
:1034500004D1002239463046FDF737FA208A1E286B
:1034600001D0A02804D1012239463046FDF72DFABB
:10347000F8BD00001000002000080050FEB5052631
:1034800036070C46054601280CD0022D2ED100220D
:1034900020213046FDF719FA6078002805D0012870
:1034A00009D023E000221021F3E70021284600F094
:1034B000F4FA002104E00121284600F0EEFA01218F
:1034C000284600F073F9A17807290FD8284600F0A4
:1034D000FCFAE1787D2909D8284600F0D6FA20794F
:1034E000002805D0012805D0022805D00120FEBD06
:1034F000002102E0012100E00221284600F004FB47
:1035000061790522284600F01BFB002168466218FD
:10351000927A4254491CC9B20529F8D302460523C0
:103520000021284600F0E3FA0027E019C07B694635
:1035300008717F1CF9B205236A46284600F0D7FAC5
:10354000FFB2052FF1D3012D02D0022D03D007E0E9
:103550000122102101E0012220213046FDF7B5F9BA
:103560000020FEBD70B5414C0346E078404D002878
:1035700002D0012877D114E0C12B09D0C22B07D08B
:10358000C32B05D0D12B03D0D22B01D0D32B6AD1A2
:10359000FFF7FEFE60782B54401C60700120E07045
:1035A00061E0607800261F2804D059D3FFF7F0FEB1
:1035B000E67058E0412B09D0422B07D0432B05D0B1
:1035C000512B03D0522B01D0532BEFD1EB7720207E
:1035D00060702878C1281AD0C2281DD0C32822D0F4
:1035E000D12827D0D2282FD0D328DFD1532BDDD11B
:1035F0000120FFF7DDFE0028D8D10220FFF7D8FE1A
:103600000028D3D11A49012000F03AFC23E0412BD5
:10361000CCD11749012003E0422BC7D11449022025
:10362000FFF72CFFC2E7432BC0D111490120FFF760
:1036300025FFF3E7512BB9D10120FFF7B9FE002890
:10364000B4D10B49012008E0522BAFD10220FFF783
:10365000AFFE0028AAD10649022000F011FCA5E720
:103660002B54401C6070002070BD0000280000201A
:10367000F402002010B50A48FEF79EF80021084821
:10368000FEF7E2FA0C210648FEF7DEFA00210846B2
:1036900000F008F80021012000F004F810BD00003F
:1036A00090000020064A914200DD1146054A00289C
:1036B000126803D0012800D111647047516370472C
:1036C000E703000090000020FDF714F9FFF7E1F890
:1036D000FEF78EFEFEF770FEFEF7D6FEFEF7FAFE50
:1036E000FEF7AEFFFEF774FF00F0FAFA00F018FBE9
:1036F000FCE7000070B5012000F064F801218903A7
:10370000224C234D002815D001222846FDF7DDF874
:103710006420FDF715F8022000F054F80121C903D8
:1037200000281DD001222846FDF7CFF86420FDF7C0
:1037300007F870BD00222846FDF7C7F8012000F009
:1037400015F90521012000F0C0F93C21012000F00D
:103750009CF90021012000F0A0F900202070D7E79B
:1037600000222846FDF7B1F8022000F0FFF80521FD
:10377000022000F0AAF96421022000F086F901215C
:10378000022000F08AF901206070CFE710000020CD
:103790000008005010B5012202490348FEF766FDFB
:1037A00010BD00002800002028010020044A012844
:1037B00003D0022800D1517070471170704700008B
:1037C00010000020F0B585B0054618A103C900908F
:1037D0000191684605700024057102946E4602AF9F
:1037E000039402E0012005B0F0BD05236A461021D4
:1037F000284600F01BFA052302AA1021284600F0F3
:10380000AAF90020315C3A5C914203D1401CC0B25D
:103810000528F7D3052807D0C820FCF791FF641CC2
:10382000E4B20A2CE1D9DDE70020DCE700A5A5A57C
:1038300000000000F8B50546702001400C462846FF
:1038400000F0FEF805273F070646012D02D0022DA5
:1038500003D012E00022012101E0002208213846B5
:10386000FDF733F8272000F0CFF92046304300F071
:10387000CBF9012D03D0022D04D00020F8BD012288
:10388000114601E0012208213846FDF71EF82846BE
:1038900000F0D6F8F8BD052210B51207012807D0B0
:1038A00080211046FDF70CF8002800D0012010BD43
:1038B00001210903F5E770B50546072100F07BF902
:1038C000044602460721284600F0E1F9204670BD73
:1038D00070B50D460646072100F06DF90446024614
:1038E0000721304600F0D3F9600610D5602130463C
:1038F00000F061F9044603462A466121304600F093
:103900002AF9FF22E221304600F0C1F9204670BDBD
:1039100070B505252D070E460446012802D0022C5D
:1039200003D01EE00022012101E0002208212846E8
:10393000FCF7CBFFB02000F067F90023DB43202227
:1039400031460948FDF79AFC012C02D0022C03D025
:1039500007E00122114601E0012208212846FCF778
:10396000B4FF002070BD00002C0000207CB50525B0
:103970002D070446012802D0022C08D059E001226C
:1039800011462846FCF7A1FF0122102106E0012282
:1039900008212846FCF799FF012220212846FCF740
:1039A00094FF25A103C90191009070212046FFF7E3
:1039B00041FF01221C21204600F069F907221D2148
:1039C000204600F064F91C21204600F0F4F81D2187
:1039D000204600F0F0F80A220021204600F057F9B6
:1039E00001221146204600F052F901220221204610
:1039F00000F04DF903221146204600F048F9FF225D
:103A00000421204600F043F93C220521204600F025
:103A10003EF926220621204600F039F905226946A2
:103A2000204600F08DF805236A460021204600F06C
:103A30005EF800207CBD000034431010010000003F
:103A400070B5052636070446012802D0022C03D0A3
:103A50000FE00022012101E0002208213046FCF79E
:103A600034FF072000F0D0F80546012C03D0022CCB
:103A700004D0002070BD0122114601E0012208217E
:103A80003046FCF722FF284670BD4A0610B5520E9C
:103A9000052100F0FCF8002010BD70B50C4605466D
:103AA000002100F088F8002C03D0012C04D0012064
:103AB00070BD4208520002E0012108430246002185
:103AC000284600F0E4F8002070BD70B50C460546AD
:103AD000072900D90724062100F06DF8C208D2009A
:103AE00022430621284600F0D2F8002070BD10B510
:103AF000052B00D90523052900D905210A31C9B2B2
:103B000000F094F8002010BD70B50C460546062163
:103B100000F051F8D72108400246002C04D0012CB7
:103B200004D0022C04D005E0202002E00A4001E08D
:103B3000082002430621284600F0A9F8002070BDA5
:103B400010B5052A00D9052213460A46102100F0B7
:103B50006DF8002010BDF8B51E4617460C46054608
:103B6000012802D0022D03D023E00022012101E030
:103B70000022082105200007FCF7A7FE204600F0E0
:103B800043F8002405E0FF2000F03EF83855641C9F
:103B9000E4B2B442F7D3012D02D0022D03D008E0E5
:103BA0000122114601E00122082105200007FCF74F
:103BB0008CFE0020F8BD70B5052636070D4604467C
:103BC000012802D0022C03D012E00022012101E0E2
:103BD000002208213046FCF778FE284600F014F851
:103BE000FF2000F011F80546012C03D0022C04D070
:103BF000002070BD0122114601E00122082130465B
:103C0000FCF763FE284670BD01B582B0002168460E
:103C10000171481E0090012301AA02A90248FDF784
:103C2000DDFB684600790EBD2C000020F8B51E466D
:103C300017460C460546012802D0022D03D024E089
:103C40000022012101E00022082105200007FCF7E5
:103C50003CFE204620210843FFF7D6FF002404E065
:103C6000385DFFF7D1FF641CE4B2B442F8D3012DF4
:103C700002D0022D03D008E00122114601E001220A
:103C8000082105200007FCF720FE0020F8BDF8B54C
:103C90000526360717460D460446012802D0022C99
:103CA00003D01BE00022012101E000220821304660
:103CB000FCF70BFE20202843FFF7A6FF3846FFF74E
:103CC000A3FF012C02D0022C03D007E001221146F1
:103CD00001E0012208213046FCF7F7FD0020F8BD85
:103CE00010B50C4C012291032046FCF7EEFD012299
:103CF000D1032046FCF7E9FDFFF7BCFCFFF7FAFC17
:103D0000FFF748FD0448FDF77BFD04490120C87119
:103D100010BD000000080050DC0000201000002052
:103D2000F8B5464CA079002877D0E079002874D007
:103D30002078022701260025002804D001281BD066
:103D4000022819D036E0A0780028E07808D00028B2
:103D500008D1A570E6703A490120FFF7D9FD29E0A6
:103D6000002827D00120FFF796FD002822D101204E
:103D7000FFF7A1FDE5701DE00120FFF78CFD002895
:103D80000BD06089401C80B260812189884211D3A8
:103D90000120FFF790FD26700BE0294901204031FA
:103DA000FFF796FD202804D125482770403000F009
:103DB00049F865816078002804D001281CD00228C9
:103DC0001AD038E020790028607909D0002809D17C
:103DD0001B492571667120310220FFF799FD2AE009
:103DE000002828D00220FFF756FD002823D102200A
:103DF000FFF761FD65711EE00220FFF74CFD002812
:103E00000CD0E089401C80B2E081A189884212D3A5
:103E10000220FFF750FD66700CE00DE0084902201B
:103E20006031FFF755FD202804D1054867706030E8
:103E300000F008F8E581A571F8BD00001000002031
:103E40007402002010B50B4CA178012910D00A4A49
:103E50000021435C5354491CC9B22029F9D32022C4
:103E600005490648FEF744FA0120A070002010BD65
:103E7000012010BD2800002014030020280100208C
:103E800030B50123114A012802D002280DD018E0D4
:103E90000F4C00200D5C2554401CC0B22028F9D3E3
:103EA000907800280DD193700EE0094C002020344A
:103EB0000D5C2554401CC0B22028F9D3107900288D
:103EC00001D0012030BD1371002030BD1000002052
:103ED00074020020010002000400060008000A002D
:103EE0000C001000200040008000000101010103CF
:103EF000070100000804020408010101000000009D
:103F000000000000000000000000000000000000B1
:103F100000000000000000000000000001000000A0
:103F20000200000003000000040000000600000082
:103F30000700000008000000090000000000000069
:103F40000000000000000000000000000100000070
:103F50000200000003000000040000007C3F000895
:103F6000000000202C00000004010008A83F000809
:103F70002C0000206C090000200100080100000056
:103F800004000000000000000024F400030300000F
:103F900000000000F4010000F40100000000000037
:083FA000000000000000000019
:04000005080000C12E
:00000001FF
